{
  "_format": "hh-sol-artifact-1",
  "contractName": "TimeLockedWalletFactory",
  "sourceName": "contracts/TimeLockedWalletFactory.sol",
  "abi": [
    {
      "anonymous": false,
      "inputs": [
        {
          "indexed": false,
          "internalType": "address",
          "name": "wallet",
          "type": "address"
        },
        {
          "indexed": false,
          "internalType": "address",
          "name": "from",
          "type": "address"
        },
        {
          "indexed": false,
          "internalType": "address",
          "name": "to",
          "type": "address"
        },
        {
          "indexed": false,
          "internalType": "uint256",
          "name": "createdAt",
          "type": "uint256"
        },
        {
          "indexed": false,
          "internalType": "uint256[]",
          "name": "lockTimeFrames",
          "type": "uint256[]"
        },
        {
          "indexed": false,
          "internalType": "uint256[]",
          "name": "lockAmounts",
          "type": "uint256[]"
        }
      ],
      "name": "Created",
      "type": "event"
    },
    {
      "stateMutability": "payable",
      "type": "fallback"
    },
    {
      "inputs": [
        {
          "internalType": "address",
          "name": "_user",
          "type": "address"
        }
      ],
      "name": "getWallets",
      "outputs": [
        {
          "internalType": "address[]",
          "name": "",
          "type": "address[]"
        }
      ],
      "stateMutability": "view",
      "type": "function"
    },
    {
      "inputs": [
        {
          "internalType": "address",
          "name": "_owner",
          "type": "address"
        },
        {
          "internalType": "uint256[]",
          "name": "_lockTimeFrames",
          "type": "uint256[]"
        },
        {
          "internalType": "uint256[]",
          "name": "_lockAmounts",
          "type": "uint256[]"
        }
      ],
      "name": "newTimeLockedWallet",
      "outputs": [
        {
          "internalType": "address",
          "name": "wallet",
          "type": "address"
        }
      ],
      "stateMutability": "nonpayable",
      "type": "function"
    },
    {
      "stateMutability": "payable",
      "type": "receive"
    }
  ],
  "bytecode": "0x608060405234801561001057600080fd5b5061210b806100206000396000f3fe608060405260043610620000315760003560e01c8063422c29a414620000b1578063dc0dffec14620000f55762000074565b3662000074576040517f08c379a00000000000000000000000000000000000000000000000000000000081526004016200006b9062000476565b60405180910390fd5b6040517f08c379a0000000000000000000000000000000000000000000000000000000008152600401620000a89062000476565b60405180910390fd5b348015620000be57600080fd5b50620000dd6004803603810190620000d7919062000511565b62000139565b604051620000ec919062000611565b60405180910390f35b3480156200010257600080fd5b506200012160048036038101906200011b9190620007e5565b62000207565b60405162000130919062000890565b60405180910390f35b60606000808373ffffffffffffffffffffffffffffffffffffffff1673ffffffffffffffffffffffffffffffffffffffff168152602001908152602001600020805480602002602001604051908101604052809291908181526020018280548015620001fb57602002820191906000526020600020905b8160009054906101000a900473ffffffffffffffffffffffffffffffffffffffff1673ffffffffffffffffffffffffffffffffffffffff1681526020019060010190808311620001b0575b50505050509050919050565b6000338484846040516200021b9062000407565b6200022a94939291906200097b565b604051809103906000f08015801562000247573d6000803e3d6000fd5b5090506000803373ffffffffffffffffffffffffffffffffffffffff1673ffffffffffffffffffffffffffffffffffffffff168152602001908152602001600020819080600181540180825580915050600190039060005260206000200160009091909190916101000a81548173ffffffffffffffffffffffffffffffffffffffff021916908373ffffffffffffffffffffffffffffffffffffffff1602179055508373ffffffffffffffffffffffffffffffffffffffff163373ffffffffffffffffffffffffffffffffffffffff1614620003bd576000808573ffffffffffffffffffffffffffffffffffffffff1673ffffffffffffffffffffffffffffffffffffffff168152602001908152602001600020819080600181540180825580915050600190039060005260206000200160009091909190916101000a81548173ffffffffffffffffffffffffffffffffffffffff021916908373ffffffffffffffffffffffffffffffffffffffff1602179055505b7f198785c5f1cefce27821f372db8a63fae5da4182736b8c8e3465edd5eb909ea3813386428787604051620003f896959493929190620009e7565b60405180910390a19392505050565b6116738062000a6383390190565b600082825260208201905092915050565b7f436f756c64206e6f742073656e642065746820746f20636f6e74726163740000600082015250565b60006200045e601e8362000415565b91506200046b8262000426565b602082019050919050565b6000602082019050818103600083015262000491816200044f565b9050919050565b6000604051905090565b600080fd5b600080fd5b600073ffffffffffffffffffffffffffffffffffffffff82169050919050565b6000620004d982620004ac565b9050919050565b620004eb81620004cc565b8114620004f757600080fd5b50565b6000813590506200050b81620004e0565b92915050565b6000602082840312156200052a5762000529620004a2565b5b60006200053a84828501620004fa565b91505092915050565b600081519050919050565b600082825260208201905092915050565b6000819050602082019050919050565b6200057a81620004cc565b82525050565b60006200058e83836200056f565b60208301905092915050565b6000602082019050919050565b6000620005b48262000543565b620005c081856200054e565b9350620005cd836200055f565b8060005b8381101562000604578151620005e8888262000580565b9750620005f5836200059a565b925050600181019050620005d1565b5085935050505092915050565b600060208201905081810360008301526200062d8184620005a7565b905092915050565b600080fd5b6000601f19601f8301169050919050565b7f4e487b7100000000000000000000000000000000000000000000000000000000600052604160045260246000fd5b62000685826200063a565b810181811067ffffffffffffffff82111715620006a757620006a66200064b565b5b80604052505050565b6000620006bc62000498565b9050620006ca82826200067a565b919050565b600067ffffffffffffffff821115620006ed57620006ec6200064b565b5b602082029050602081019050919050565b600080fd5b6000819050919050565b620007188162000703565b81146200072457600080fd5b50565b60008135905062000738816200070d565b92915050565b6000620007556200074f84620006cf565b620006b0565b905080838252602082019050602084028301858111156200077b576200077a620006fe565b5b835b81811015620007a8578062000793888262000727565b8452602084019350506020810190506200077d565b5050509392505050565b600082601f830112620007ca57620007c962000635565b5b8135620007dc8482602086016200073e565b91505092915050565b600080600060608486031215620008015762000800620004a2565b5b60006200081186828701620004fa565b935050602084013567ffffffffffffffff811115620008355762000834620004a7565b5b6200084386828701620007b2565b925050604084013567ffffffffffffffff811115620008675762000866620004a7565b5b6200087586828701620007b2565b9150509250925092565b6200088a81620004cc565b82525050565b6000602082019050620008a760008301846200087f565b92915050565b600081519050919050565b600082825260208201905092915050565b6000819050602082019050919050565b620008e48162000703565b82525050565b6000620008f88383620008d9565b60208301905092915050565b6000602082019050919050565b60006200091e82620008ad565b6200092a8185620008b8565b93506200093783620008c9565b8060005b838110156200096e578151620009528882620008ea565b97506200095f8362000904565b9250506001810190506200093b565b5085935050505092915050565b60006080820190506200099260008301876200087f565b620009a160208301866200087f565b8181036040830152620009b5818562000911565b90508181036060830152620009cb818462000911565b905095945050505050565b620009e18162000703565b82525050565b600060c082019050620009fe60008301896200087f565b62000a0d60208301886200087f565b62000a1c60408301876200087f565b62000a2b6060830186620009d6565b818103608083015262000a3f818562000911565b905081810360a083015262000a55818462000911565b905097965050505050505056fe60806040523480156200001157600080fd5b50604051620016733803806200167383398181016040528101906200003791906200045d565b60008251116200007e576040517f08c379a000000000000000000000000000000000000000000000000000000000815260040162000075906200056e565b60405180910390fd5b8051825114620000c5576040517f08c379a0000000000000000000000000000000000000000000000000000000008152600401620000bc9062000606565b60405180910390fd5b836000806101000a81548173ffffffffffffffffffffffffffffffffffffffff021916908373ffffffffffffffffffffffffffffffffffffffff16021790555082600160006101000a81548173ffffffffffffffffffffffffffffffffffffffff021916908373ffffffffffffffffffffffffffffffffffffffff1602179055504260028190555060005b82518110156200022957600360405180606001604052808584815181106200017d576200017c62000628565b5b60200260200101518152602001848481518110620001a0576200019f62000628565b5b60200260200101518152602001600015158152509080600181540180825580915050600190039060005260206000209060030201600090919091909150600082015181600001556020820151816001015560408201518160020160006101000a81548160ff02191690831515021790555050508080620002209062000686565b91505062000150565b5050505050620006d4565b6000604051905090565b600080fd5b600080fd5b600073ffffffffffffffffffffffffffffffffffffffff82169050919050565b6000620002758262000248565b9050919050565b620002878162000268565b81146200029357600080fd5b50565b600081519050620002a7816200027c565b92915050565b600080fd5b6000601f19601f8301169050919050565b7f4e487b7100000000000000000000000000000000000000000000000000000000600052604160045260246000fd5b620002fd82620002b2565b810181811067ffffffffffffffff821117156200031f576200031e620002c3565b5b80604052505050565b60006200033462000234565b9050620003428282620002f2565b919050565b600067ffffffffffffffff821115620003655762000364620002c3565b5b602082029050602081019050919050565b600080fd5b6000819050919050565b62000390816200037b565b81146200039c57600080fd5b50565b600081519050620003b08162000385565b92915050565b6000620003cd620003c78462000347565b62000328565b90508083825260208201905060208402830185811115620003f357620003f262000376565b5b835b818110156200042057806200040b88826200039f565b845260208401935050602081019050620003f5565b5050509392505050565b600082601f830112620004425762000441620002ad565b5b815162000454848260208601620003b6565b91505092915050565b600080600080608085870312156200047a57620004796200023e565b5b60006200048a8782880162000296565b94505060206200049d8782880162000296565b935050604085015167ffffffffffffffff811115620004c157620004c062000243565b5b620004cf878288016200042a565b925050606085015167ffffffffffffffff811115620004f357620004f262000243565b5b62000501878288016200042a565b91505092959194509250565b600082825260208201905092915050565b7f496e76616c6964206c6f636b20706572696f6473000000000000000000000000600082015250565b6000620005566014836200050d565b915062000563826200051e565b602082019050919050565b60006020820190508181036000830152620005898162000547565b9050919050565b7f556e6c6f636b20706572696f6420616e6420616d6f756e7420646566696e656460008201527f206973206e6f74207468652073616d6500000000000000000000000000000000602082015250565b6000620005ee6030836200050d565b9150620005fb8262000590565b604082019050919050565b600060208201905081810360008301526200062181620005df565b9050919050565b7f4e487b7100000000000000000000000000000000000000000000000000000000600052603260045260246000fd5b7f4e487b7100000000000000000000000000000000000000000000000000000000600052601160045260246000fd5b600062000693826200037b565b91507fffffffffffffffffffffffffffffffffffffffffffffffffffffffffffffffff821415620006c957620006c862000657565b5b600182019050919050565b610f8f80620006e46000396000f3fe608060405234801561001057600080fd5b50600436106100625760003560e01c806302d05d3f14610067578063370158ea1461008557806349df728c146100a85780637bd4870b146100d85780638da5cb5b14610108578063cf09e0d014610126575b600080fd5b61006f610144565b60405161007c91906108f2565b60405180910390f35b61008d610168565b60405161009f96959493929190610aae565b60405180910390f35b6100c260048036038101906100bd9190610b55565b6103c6565b6040516100cf9190610b91565b60405180910390f35b6100f260048036038101906100ed9190610bd8565b61076b565b6040516100ff9190610b91565b60405180910390f35b610110610885565b60405161011d91906108f2565b60405180910390f35b61012e6108ab565b60405161013b9190610c18565b60405180910390f35b60008054906101000a900473ffffffffffffffffffffffffffffffffffffffff1681565b600080600060608060606000600380549050905060008167ffffffffffffffff81111561019857610197610c33565b5b6040519080825280602002602001820160405280156101c65781602001602082028036833780820191505090505b50905060008267ffffffffffffffff8111156101e5576101e4610c33565b5b6040519080825280602002602001820160405280156102135781602001602082028036833780820191505090505b50905060008367ffffffffffffffff81111561023257610231610c33565b5b6040519080825280602002602001820160405280156102605781602001602082028036833780820191505090505b50905060005b84811015610363576003818154811061028257610281610c62565b5b9060005260206000209060030201600001548482815181106102a7576102a6610c62565b5b602002602001018181525050600381815481106102c7576102c6610c62565b5b9060005260206000209060030201600101548382815181106102ec576102eb610c62565b5b6020026020010181815250506003818154811061030c5761030b610c62565b5b906000526020600020906003020160020160009054906101000a900460ff1682828151811061033e5761033d610c62565b5b602002602001019015159081151581525050808061035b90610cc0565b915050610266565b5060008054906101000a900473ffffffffffffffffffffffffffffffffffffffff16600160009054906101000a900473ffffffffffffffffffffffffffffffffffffffff1660025485858599509950995099509950995050505050909192939495565b6000600160009054906101000a900473ffffffffffffffffffffffffffffffffffffffff1673ffffffffffffffffffffffffffffffffffffffff163373ffffffffffffffffffffffffffffffffffffffff1614610458576040517f08c379a000000000000000000000000000000000000000000000000000000000815260040161044f90610d66565b60405180910390fd5b600073ffffffffffffffffffffffffffffffffffffffff168273ffffffffffffffffffffffffffffffffffffffff1614156104c8576040517f08c379a00000000000000000000000000000000000000000000000000000000081526004016104bf90610dd2565b60405180910390fd5b6000829050600042905060005b60038054905081101561075f5781600382815481106104f7576104f6610c62565b5b9060005260206000209060030201600001541115801561054757506003818154811061052657610525610c62565b5b906000526020600020906003020160020160009054906101000a900460ff16155b1561074c5760008373ffffffffffffffffffffffffffffffffffffffff166370a08231306040518263ffffffff1660e01b815260040161058791906108f2565b60206040518083038186803b15801561059f57600080fd5b505afa1580156105b3573d6000803e3d6000fd5b505050506040513d601f19601f820116820180604052508101906105d79190610e07565b90506000600383815481106105ef576105ee610c62565b5b906000526020600020906003020160010154905060008282116106125781610614565b825b9050600081146107485760016003858154811061063457610633610c62565b5b906000526020600020906003020160020160006101000a81548160ff0219169083151502179055508573ffffffffffffffffffffffffffffffffffffffff1663a9059cbb600160009054906101000a900473ffffffffffffffffffffffffffffffffffffffff16836040518363ffffffff1660e01b81526004016106b9929190610e34565b602060405180830381600087803b1580156106d357600080fd5b505af11580156106e7573d6000803e3d6000fd5b505050506040513d601f19601f8201168201806040525081019061070b9190610e89565b507fa04c965e7d289704527a948915777d68bb4530fb4b08aa935fb958c0b7901ab988338360405161073f93929190610eb6565b60405180910390a15b5050505b808061075790610cc0565b9150506104d5565b50600192505050919050565b60008060009054906101000a900473ffffffffffffffffffffffffffffffffffffffff1673ffffffffffffffffffffffffffffffffffffffff163373ffffffffffffffffffffffffffffffffffffffff16146107fc576040517f08c379a00000000000000000000000000000000000000000000000000000000081526004016107f390610f39565b60405180910390fd5b60036040518060600160405280858152602001848152602001600015158152509080600181540180825580915050600190039060005260206000209060030201600090919091909150600082015181600001556020820151816001015560408201518160020160006101000a81548160ff02191690831515021790555050506001905092915050565b600160009054906101000a900473ffffffffffffffffffffffffffffffffffffffff1681565b60025481565b600073ffffffffffffffffffffffffffffffffffffffff82169050919050565b60006108dc826108b1565b9050919050565b6108ec816108d1565b82525050565b600060208201905061090760008301846108e3565b92915050565b6000819050919050565b6109208161090d565b82525050565b600081519050919050565b600082825260208201905092915050565b6000819050602082019050919050565b61095b8161090d565b82525050565b600061096d8383610952565b60208301905092915050565b6000602082019050919050565b600061099182610926565b61099b8185610931565b93506109a683610942565b8060005b838110156109d75781516109be8882610961565b97506109c983610979565b9250506001810190506109aa565b5085935050505092915050565b600081519050919050565b600082825260208201905092915050565b6000819050602082019050919050565b60008115159050919050565b610a2581610a10565b82525050565b6000610a378383610a1c565b60208301905092915050565b6000602082019050919050565b6000610a5b826109e4565b610a6581856109ef565b9350610a7083610a00565b8060005b83811015610aa1578151610a888882610a2b565b9750610a9383610a43565b925050600181019050610a74565b5085935050505092915050565b600060c082019050610ac360008301896108e3565b610ad060208301886108e3565b610add6040830187610917565b8181036060830152610aef8186610986565b90508181036080830152610b038185610986565b905081810360a0830152610b178184610a50565b9050979650505050505050565b600080fd5b610b32816108d1565b8114610b3d57600080fd5b50565b600081359050610b4f81610b29565b92915050565b600060208284031215610b6b57610b6a610b24565b5b6000610b7984828501610b40565b91505092915050565b610b8b81610a10565b82525050565b6000602082019050610ba66000830184610b82565b92915050565b610bb58161090d565b8114610bc057600080fd5b50565b600081359050610bd281610bac565b92915050565b60008060408385031215610bef57610bee610b24565b5b6000610bfd85828601610bc3565b9250506020610c0e85828601610bc3565b9150509250929050565b6000602082019050610c2d6000830184610917565b92915050565b7f4e487b7100000000000000000000000000000000000000000000000000000000600052604160045260246000fd5b7f4e487b7100000000000000000000000000000000000000000000000000000000600052603260045260246000fd5b7f4e487b7100000000000000000000000000000000000000000000000000000000600052601160045260246000fd5b6000610ccb8261090d565b91507fffffffffffffffffffffffffffffffffffffffffffffffffffffffffffffffff821415610cfe57610cfd610c91565b5b600182019050919050565b600082825260208201905092915050565b7f43616c6c6572206973206e6f74206f776e657200000000000000000000000000600082015250565b6000610d50601383610d09565b9150610d5b82610d1a565b602082019050919050565b60006020820190508181036000830152610d7f81610d43565b9050919050565b7f496e76616c696420746f6b656e20636f6e747261637400000000000000000000600082015250565b6000610dbc601683610d09565b9150610dc782610d86565b602082019050919050565b60006020820190508181036000830152610deb81610daf565b9050919050565b600081519050610e0181610bac565b92915050565b600060208284031215610e1d57610e1c610b24565b5b6000610e2b84828501610df2565b91505092915050565b6000604082019050610e4960008301856108e3565b610e566020830184610917565b9392505050565b610e6681610a10565b8114610e7157600080fd5b50565b600081519050610e8381610e5d565b92915050565b600060208284031215610e9f57610e9e610b24565b5b6000610ead84828501610e74565b91505092915050565b6000606082019050610ecb60008301866108e3565b610ed860208301856108e3565b610ee56040830184610917565b949350505050565b7f43616c6c6572206973206e6f742063726561746f720000000000000000000000600082015250565b6000610f23601583610d09565b9150610f2e82610eed565b602082019050919050565b60006020820190508181036000830152610f5281610f16565b905091905056fea26469706673582212207c159ae1981d454c64e01c0b1991031422331b02ff954624252f1a80b36c9fc364736f6c63430008090033a2646970667358221220239937d1e5a33208ff2e6cbd028b83719a047c669fd7a70f0b21bf0b8483e19864736f6c63430008090033",
  "linkReferences": {},
  "deployedLinkReferences": {}
}